{
  "contractName": "EnergyBazar",
  "abi": [
    {
      "anonymous": false,
      "inputs": [
        {
          "indexed": true,
          "internalType": "bytes32",
          "name": "_id",
          "type": "bytes32"
        },
        {
          "indexed": true,
          "internalType": "address",
          "name": "_seller",
          "type": "address"
        },
        {
          "indexed": true,
          "internalType": "address",
          "name": "_buyer",
          "type": "address"
        },
        {
          "indexed": false,
          "internalType": "string",
          "name": "_name",
          "type": "string"
        },
        {
          "indexed": false,
          "internalType": "uint256",
          "name": "_price",
          "type": "uint256"
        },
        {
          "indexed": false,
          "internalType": "bool",
          "name": "_renewable",
          "type": "bool"
        }
      ],
      "name": "ArticleSold",
      "type": "event"
    },
    {
      "anonymous": false,
      "inputs": [
        {
          "indexed": true,
          "internalType": "bytes32",
          "name": "_id",
          "type": "bytes32"
        },
        {
          "indexed": true,
          "internalType": "address",
          "name": "_seller",
          "type": "address"
        },
        {
          "indexed": false,
          "internalType": "string",
          "name": "_name",
          "type": "string"
        },
        {
          "indexed": false,
          "internalType": "uint256",
          "name": "_price",
          "type": "uint256"
        },
        {
          "indexed": false,
          "internalType": "bool",
          "name": "_renewable",
          "type": "bool"
        }
      ],
      "name": "ArticleToSell",
      "type": "event"
    },
    {
      "inputs": [
        {
          "internalType": "bytes32",
          "name": "",
          "type": "bytes32"
        }
      ],
      "name": "articles",
      "outputs": [
        {
          "internalType": "bytes32",
          "name": "id",
          "type": "bytes32"
        },
        {
          "internalType": "address payable",
          "name": "seller",
          "type": "address"
        },
        {
          "internalType": "address",
          "name": "buyer",
          "type": "address"
        },
        {
          "internalType": "string",
          "name": "name",
          "type": "string"
        },
        {
          "internalType": "uint256",
          "name": "price",
          "type": "uint256"
        },
        {
          "internalType": "bool",
          "name": "renewable",
          "type": "bool"
        }
      ],
      "stateMutability": "view",
      "type": "function",
      "constant": true
    },
    {
      "inputs": [
        {
          "internalType": "string",
          "name": "_name",
          "type": "string"
        },
        {
          "internalType": "uint256",
          "name": "_price",
          "type": "uint256"
        },
        {
          "internalType": "bool",
          "name": "_renewable",
          "type": "bool"
        }
      ],
      "name": "sellPower",
      "outputs": [],
      "stateMutability": "nonpayable",
      "type": "function"
    },
    {
      "inputs": [
        {
          "internalType": "bytes32",
          "name": "_id",
          "type": "bytes32"
        }
      ],
      "name": "getArticle",
      "outputs": [
        {
          "internalType": "bytes32",
          "name": "id",
          "type": "bytes32"
        },
        {
          "internalType": "address",
          "name": "_seller",
          "type": "address"
        },
        {
          "internalType": "address",
          "name": "_buyer",
          "type": "address"
        },
        {
          "internalType": "string",
          "name": "_name",
          "type": "string"
        },
        {
          "internalType": "uint256",
          "name": "_price",
          "type": "uint256"
        },
        {
          "internalType": "bool",
          "name": "_renewable",
          "type": "bool"
        }
      ],
      "stateMutability": "view",
      "type": "function",
      "constant": true
    },
    {
      "inputs": [
        {
          "internalType": "bytes32",
          "name": "_id",
          "type": "bytes32"
        }
      ],
      "name": "buyPower",
      "outputs": [],
      "stateMutability": "payable",
      "type": "function",
      "payable": true
    }
  ],
  "bytecode": "0x608060405234801561001057600080fd5b506114b0806100206000396000f3fe60806040526004361061003f5760003560e01c80631ba395dd1461004457806351da8a4f14610086578063a38c20ef146100c8578063cd25bbd4146100f1575b600080fd5b34801561005057600080fd5b5061006b60048036038101906100669190610976565b61010d565b60405161007d96959493929190610ab7565b60405180910390f35b34801561009257600080fd5b506100ad60048036038101906100a89190610976565b6102d9565b6040516100bf96959493929190610b40565b60405180910390f35b3480156100d457600080fd5b506100ef60048036038101906100ea9190610d35565b6103ea565b005b61010b60048036038101906101069190610976565b6105d9565b005b6000806000606060008060008060008981526020019081526020016000206040518060c0016040529081600082015481526020016001820160009054906101000a900473ffffffffffffffffffffffffffffffffffffffff1673ffffffffffffffffffffffffffffffffffffffff1673ffffffffffffffffffffffffffffffffffffffff1681526020016002820160009054906101000a900473ffffffffffffffffffffffffffffffffffffffff1673ffffffffffffffffffffffffffffffffffffffff1673ffffffffffffffffffffffffffffffffffffffff1681526020016003820180546101fc90610dd3565b80601f016020809104026020016040519081016040528092919081815260200182805461022890610dd3565b80156102755780601f1061024a57610100808354040283529160200191610275565b820191906000526020600020905b81548152906001019060200180831161025857829003601f168201915b50505050508152602001600482015481526020016005820160009054906101000a900460ff1615151515815250509050806000015181602001518260400151836060015184608001518560a001519650965096509650965096505091939550919395565b60006020528060005260406000206000915090508060000154908060010160009054906101000a900473ffffffffffffffffffffffffffffffffffffffff16908060020160009054906101000a900473ffffffffffffffffffffffffffffffffffffffff169080600301805461034e90610dd3565b80601f016020809104026020016040519081016040528092919081815260200182805461037a90610dd3565b80156103c75780601f1061039c576101008083540402835291602001916103c7565b820191906000526020600020905b8154815290600101906020018083116103aa57829003601f168201915b5050505050908060040154908060050160009054906101000a900460ff16905086565b60003384848442604051602001610405959493929190610ef1565b60405160208183030381529060405280519060200120905060006040518060c001604052808381526020013373ffffffffffffffffffffffffffffffffffffffff168152602001600073ffffffffffffffffffffffffffffffffffffffff1681526020018681526020018581526020018415158152509050806000808481526020019081526020016000206000820151816000015560208201518160010160006101000a81548173ffffffffffffffffffffffffffffffffffffffff021916908373ffffffffffffffffffffffffffffffffffffffff16021790555060408201518160020160006101000a81548173ffffffffffffffffffffffffffffffffffffffff021916908373ffffffffffffffffffffffffffffffffffffffff160217905550606082015181600301908161053d91906110f8565b506080820151816004015560a08201518160050160006101000a81548160ff021916908315150217905550905050806020015173ffffffffffffffffffffffffffffffffffffffff1681600001517fdfb2b69e588225e6da035a66a099e24bf94c14272aa4b316bd59140b7608d277836060015184608001518560a001516040516105ca939291906111ca565b60405180910390a35050505050565b60008060008381526020019081526020016000209050600073ffffffffffffffffffffffffffffffffffffffff168160010160009054906101000a900473ffffffffffffffffffffffffffffffffffffffff1673ffffffffffffffffffffffffffffffffffffffff1603610682576040517f08c379a000000000000000000000000000000000000000000000000000000000815260040161067990611254565b60405180910390fd5b600073ffffffffffffffffffffffffffffffffffffffff168160020160009054906101000a900473ffffffffffffffffffffffffffffffffffffffff1673ffffffffffffffffffffffffffffffffffffffff1614610715576040517f08c379a000000000000000000000000000000000000000000000000000000000815260040161070c906112c0565b60405180910390fd5b8060040154341461075b576040517f08c379a00000000000000000000000000000000000000000000000000000000081526004016107529061132c565b60405180910390fd5b8060050160009054906101000a900460ff166107ac576040517f08c379a00000000000000000000000000000000000000000000000000000000081526004016107a390611398565b60405180910390fd5b338160020160006101000a81548173ffffffffffffffffffffffffffffffffffffffff021916908373ffffffffffffffffffffffffffffffffffffffff1602179055508060010160009054906101000a900473ffffffffffffffffffffffffffffffffffffffff1673ffffffffffffffffffffffffffffffffffffffff166108fc349081150290604051600060405180830381858888f19350505050158015610859573d6000803e3d6000fd5b508060020160009054906101000a900473ffffffffffffffffffffffffffffffffffffffff1673ffffffffffffffffffffffffffffffffffffffff168160010160009054906101000a900473ffffffffffffffffffffffffffffffffffffffff1673ffffffffffffffffffffffffffffffffffffffff1682600001547fa2e80461c8dd8af44629ac9cbcfb9a5fc29225b7abd8dd4122fa7374a1f2672e8460030185600401548660050160009054906101000a900460ff166040516109209392919061143c565b60405180910390a45050565b6000604051905090565b600080fd5b600080fd5b6000819050919050565b61095381610940565b811461095e57600080fd5b50565b6000813590506109708161094a565b92915050565b60006020828403121561098c5761098b610936565b5b600061099a84828501610961565b91505092915050565b6109ac81610940565b82525050565b600073ffffffffffffffffffffffffffffffffffffffff82169050919050565b60006109dd826109b2565b9050919050565b6109ed816109d2565b82525050565b600081519050919050565b600082825260208201905092915050565b60005b83811015610a2d578082015181840152602081019050610a12565b60008484015250505050565b6000601f19601f8301169050919050565b6000610a55826109f3565b610a5f81856109fe565b9350610a6f818560208601610a0f565b610a7881610a39565b840191505092915050565b6000819050919050565b610a9681610a83565b82525050565b60008115159050919050565b610ab181610a9c565b82525050565b600060c082019050610acc60008301896109a3565b610ad960208301886109e4565b610ae660408301876109e4565b8181036060830152610af88186610a4a565b9050610b076080830185610a8d565b610b1460a0830184610aa8565b979650505050505050565b6000610b2a826109b2565b9050919050565b610b3a81610b1f565b82525050565b600060c082019050610b5560008301896109a3565b610b626020830188610b31565b610b6f60408301876109e4565b8181036060830152610b818186610a4a565b9050610b906080830185610a8d565b610b9d60a0830184610aa8565b979650505050505050565b600080fd5b600080fd5b7f4e487b7100000000000000000000000000000000000000000000000000000000600052604160045260246000fd5b610bea82610a39565b810181811067ffffffffffffffff82111715610c0957610c08610bb2565b5b80604052505050565b6000610c1c61092c565b9050610c288282610be1565b919050565b600067ffffffffffffffff821115610c4857610c47610bb2565b5b610c5182610a39565b9050602081019050919050565b82818337600083830152505050565b6000610c80610c7b84610c2d565b610c12565b905082815260208101848484011115610c9c57610c9b610bad565b5b610ca7848285610c5e565b509392505050565b600082601f830112610cc457610cc3610ba8565b5b8135610cd4848260208601610c6d565b91505092915050565b610ce681610a83565b8114610cf157600080fd5b50565b600081359050610d0381610cdd565b92915050565b610d1281610a9c565b8114610d1d57600080fd5b50565b600081359050610d2f81610d09565b92915050565b600080600060608486031215610d4e57610d4d610936565b5b600084013567ffffffffffffffff811115610d6c57610d6b61093b565b5b610d7886828701610caf565b9350506020610d8986828701610cf4565b9250506040610d9a86828701610d20565b9150509250925092565b7f4e487b7100000000000000000000000000000000000000000000000000000000600052602260045260246000fd5b60006002820490506001821680610deb57607f821691505b602082108103610dfe57610dfd610da4565b5b50919050565b60008160601b9050919050565b6000610e1c82610e04565b9050919050565b6000610e2e82610e11565b9050919050565b610e46610e41826109d2565b610e23565b82525050565b600081905092915050565b6000610e62826109f3565b610e6c8185610e4c565b9350610e7c818560208601610a0f565b80840191505092915050565b6000819050919050565b610ea3610e9e82610a83565b610e88565b82525050565b60008160f81b9050919050565b6000610ec182610ea9565b9050919050565b6000610ed382610eb6565b9050919050565b610eeb610ee682610a9c565b610ec8565b82525050565b6000610efd8288610e35565b601482019150610f0d8287610e57565b9150610f198286610e92565b602082019150610f298285610eda565b600182019150610f398284610e92565b6020820191508190509695505050505050565b60008190508160005260206000209050919050565b60006020601f8301049050919050565b600082821b905092915050565b600060088302610fae7fffffffffffffffffffffffffffffffffffffffffffffffffffffffffffffffff82610f71565b610fb88683610f71565b95508019841693508086168417925050509392505050565b6000819050919050565b6000610ff5610ff0610feb84610a83565b610fd0565b610a83565b9050919050565b6000819050919050565b61100f83610fda565b61102361101b82610ffc565b848454610f7e565b825550505050565b600090565b61103861102b565b611043818484611006565b505050565b5b818110156110675761105c600082611030565b600181019050611049565b5050565b601f8211156110ac5761107d81610f4c565b61108684610f61565b81016020851015611095578190505b6110a96110a185610f61565b830182611048565b50505b505050565b600082821c905092915050565b60006110cf600019846008026110b1565b1980831691505092915050565b60006110e883836110be565b9150826002028217905092915050565b611101826109f3565b67ffffffffffffffff81111561111a57611119610bb2565b5b6111248254610dd3565b61112f82828561106b565b600060209050601f8311600181146111625760008415611150578287015190505b61115a85826110dc565b8655506111c2565b601f19841661117086610f4c565b60005b8281101561119857848901518255600182019150602085019450602081019050611173565b868310156111b557848901516111b1601f8916826110be565b8355505b6001600288020188555050505b505050505050565b600060608201905081810360008301526111e48186610a4a565b90506111f36020830185610a8d565b6112006040830184610aa8565b949350505050565b7f41727469636c65206e6f7420617661696c61626c650000000000000000000000600082015250565b600061123e6015836109fe565b915061124982611208565b602082019050919050565b6000602082019050818103600083015261126d81611231565b9050919050565b7f41727469636c6520616c726561647920736f6c64000000000000000000000000600082015250565b60006112aa6014836109fe565b91506112b582611274565b602082019050919050565b600060208201905081810360008301526112d98161129d565b9050919050565b7f57726f6e67207072696365000000000000000000000000000000000000000000600082015250565b6000611316600b836109fe565b9150611321826112e0565b602082019050919050565b6000602082019050818103600083015261134581611309565b9050919050565b7f4e6f6e2d72656e657761626c6520656e6572677920736f757263652075736564600082015250565b60006113826020836109fe565b915061138d8261134c565b602082019050919050565b600060208201905081810360008301526113b181611375565b9050919050565b600081546113c581610dd3565b6113cf81866109fe565b945060018216600081146113ea576001811461140057611433565b60ff198316865281151560200286019350611433565b61140985610f4c565b60005b8381101561142b5781548189015260018201915060208101905061140c565b808801955050505b50505092915050565b6000606082019050818103600083015261145681866113b8565b90506114656020830185610a8d565b6114726040830184610aa8565b94935050505056fea2646970667358221220c7974c60540620893546293903b7b1f3670dc40aad5bec3d1631bfc54624598a64736f6c63430008110033",
  "immutableReferences": {},
  "source": "// SPDX-License-Identifier: MIT\npragma solidity ^0.8.16;\n\ncontract EnergyBazar {\n  \n  struct EnergyArticle{\n    bytes32 id;\n    address payable seller;\n    address buyer;\n    string name;\n    uint256 price;\n    bool renewable;\n  }\n\n  //linking unique article IDs to corresponding EnergyArticle struct\n  mapping(bytes32 => EnergyArticle) public articles;\n\n  //Events\n  event ArticleToSell(bytes32 indexed _id, address indexed _seller, string _name, uint256 _price, bool _renewable);\n  event ArticleSold(bytes32 indexed _id, address indexed _seller, address indexed _buyer, string _name, uint256 _price, bool _renewable);\n\n\n  //Sell an article\n  function sellPower(string memory _name, uint256 _price, bool _renewable) public {\n    //generation of unique ID\n    bytes32 id = keccak256(abi.encodePacked(msg.sender, _name, _price, _renewable, block.timestamp));\n    \n    //create an EnergyArticle struct with name \"article\"\n    EnergyArticle memory article = EnergyArticle({\n      id: id,\n      seller: payable(msg.sender),\n      buyer: address(0),\n      name: _name,\n      price: _price,\n      renewable: _renewable\n    });\n\n    //stores EnergyArticle struct in the \"articles\" mapping\n    articles[id] = article;\n\n    //triggers event\n    emit ArticleToSell(article.id, article.seller, article.name, article.price, article.renewable);\n  }\n\n  //Return article for sale\n  function getArticle(bytes32 _id) public view returns(\n    bytes32 id,\n    address _seller,\n    address _buyer,\n    string memory _name,\n    uint256 _price,\n    bool _renewable\n  ){\n    \n    //retrieves the EnergyArticle struct associated with the input _id from the articles mapping and stores it in a memory variable named article.\n    EnergyArticle memory article = articles[_id]; //updated\n    return (article.id, article.seller, article.buyer, article.name, article.price, article.renewable);\n  }\n\n  //Buy an article\n    function buyPower(bytes32 _id) public payable {\n      EnergyArticle storage article = articles[_id];\n\n      //is article for sale?\n      require(article.seller != address(0), \"Article not available\");\n      \n      //is article sold yet?\n      require(article.buyer == address(0), \"Article already sold\");\n\n      //is price correct?\n      require(msg.value == article.price, \"Wrong price\");\n\n      //Check if renewable energy is used\n      require(article.renewable, \"Non-renewable energy source used\");\n\n      //Sender is recorded as Buyer\n      article.buyer = msg.sender;\n\n      // Transfer the value of the transaction to the seller's address\n      article.seller.transfer(msg.value);\n\n      //trigger event\n      emit ArticleSold(article.id, article.seller, article.buyer, article.name, article.price, article.renewable);\n  }\n}\n",
  "sourcePath": "/home/jakob/FH/Semester6/Bacc-Arbeit/EnergyBazar/EnergyBazar/contracts/EnergyBazar.sol",
  "compiler": {
    "name": "solc",
    "version": "0.8.17+commit.8df45f5f.Emscripten.clang"
  },
  "schemaVersion": "3.4.10",
  "updatedAt": "2023-03-20T18:29:27.898Z",
  "networkType": "ethereum",
  "devdoc": {
    "kind": "dev",
    "methods": {},
    "version": 1
  },
  "userdoc": {
    "kind": "user",
    "methods": {},
    "version": 1
  }
}