{
  "contractName": "EnergyBazar",
  "abi": [
    {
      "anonymous": false,
      "inputs": [
        {
          "indexed": true,
          "internalType": "bytes32",
          "name": "_auctionId",
          "type": "bytes32"
        },
        {
          "indexed": true,
          "internalType": "bytes32",
          "name": "_articleId",
          "type": "bytes32"
        },
        {
          "indexed": false,
          "internalType": "uint256",
          "name": "_endTime",
          "type": "uint256"
        }
      ],
      "name": "AuctionCreated",
      "type": "event"
    },
    {
      "anonymous": false,
      "inputs": [
        {
          "indexed": true,
          "internalType": "bytes32",
          "name": "_auctionId",
          "type": "bytes32"
        },
        {
          "indexed": true,
          "internalType": "address",
          "name": "_winner",
          "type": "address"
        },
        {
          "indexed": false,
          "internalType": "uint256",
          "name": "_value",
          "type": "uint256"
        }
      ],
      "name": "AuctionFinalized",
      "type": "event"
    },
    {
      "anonymous": false,
      "inputs": [
        {
          "indexed": true,
          "internalType": "bytes32",
          "name": "_auctionId",
          "type": "bytes32"
        },
        {
          "indexed": true,
          "internalType": "address",
          "name": "_bidder",
          "type": "address"
        },
        {
          "indexed": false,
          "internalType": "uint256",
          "name": "_value",
          "type": "uint256"
        }
      ],
      "name": "NewBid",
      "type": "event"
    },
    {
      "inputs": [
        {
          "internalType": "bytes32",
          "name": "",
          "type": "bytes32"
        }
      ],
      "name": "articles",
      "outputs": [
        {
          "internalType": "bytes32",
          "name": "articleId",
          "type": "bytes32"
        },
        {
          "internalType": "address payable",
          "name": "seller",
          "type": "address"
        },
        {
          "internalType": "address",
          "name": "buyer",
          "type": "address"
        },
        {
          "internalType": "string",
          "name": "name",
          "type": "string"
        },
        {
          "internalType": "uint256",
          "name": "price",
          "type": "uint256"
        },
        {
          "internalType": "bool",
          "name": "renewable",
          "type": "bool"
        },
        {
          "internalType": "bytes32",
          "name": "auctionId",
          "type": "bytes32"
        }
      ],
      "stateMutability": "view",
      "type": "function",
      "constant": true
    },
    {
      "inputs": [
        {
          "internalType": "bytes32",
          "name": "",
          "type": "bytes32"
        }
      ],
      "name": "auctions",
      "outputs": [
        {
          "internalType": "bytes32",
          "name": "auctionId",
          "type": "bytes32"
        },
        {
          "internalType": "uint256",
          "name": "highestBid",
          "type": "uint256"
        },
        {
          "internalType": "address payable",
          "name": "highestBidder",
          "type": "address"
        },
        {
          "internalType": "uint256",
          "name": "endTime",
          "type": "uint256"
        },
        {
          "internalType": "bool",
          "name": "finalized",
          "type": "bool"
        }
      ],
      "stateMutability": "view",
      "type": "function",
      "constant": true
    },
    {
      "inputs": [
        {
          "internalType": "string",
          "name": "_name",
          "type": "string"
        },
        {
          "internalType": "uint256",
          "name": "_price",
          "type": "uint256"
        },
        {
          "internalType": "bool",
          "name": "_renewable",
          "type": "bool"
        },
        {
          "internalType": "uint256",
          "name": "_auctionDuration",
          "type": "uint256"
        }
      ],
      "name": "sellPower",
      "outputs": [],
      "stateMutability": "nonpayable",
      "type": "function"
    },
    {
      "inputs": [
        {
          "internalType": "bytes32",
          "name": "_articleId",
          "type": "bytes32"
        }
      ],
      "name": "placeBid",
      "outputs": [],
      "stateMutability": "payable",
      "type": "function",
      "payable": true
    },
    {
      "inputs": [
        {
          "internalType": "bytes32",
          "name": "_articleId",
          "type": "bytes32"
        }
      ],
      "name": "finalizeAuction",
      "outputs": [],
      "stateMutability": "nonpayable",
      "type": "function"
    }
  ],
  "bytecode": "0x608060405234801561001057600080fd5b506117dd806100206000396000f3fe60806040526004361061004a5760003560e01c80631edbc5be1461004f578063497ecfc51461009057806351da8a4f146100ac578063760b1411146100ef578063983b94fb14610118575b600080fd5b34801561005b57600080fd5b5061007660048036038101906100719190610ba7565b610141565b604051610087959493929190610c58565b60405180910390f35b6100aa60048036038101906100a59190610ba7565b6101a4565b005b3480156100b857600080fd5b506100d360048036038101906100ce9190610ba7565b610466565b6040516100e69796959493929190610d5c565b60405180910390f35b3480156100fb57600080fd5b5061011660048036038101906101119190610f5f565b61057d565b005b34801561012457600080fd5b5061013f600480360381019061013a9190610ba7565b61088e565b005b60016020528060005260406000206000915090508060000154908060010154908060020160009054906101000a900473ffffffffffffffffffffffffffffffffffffffff16908060030154908060040160009054906101000a900460ff16905085565b600080600083815260200190815260200160002090506000600160008360060154815260200190815260200160002090508060030154421061021b576040517f08c379a00000000000000000000000000000000000000000000000000000000081526004016102129061102e565b60405180910390fd5b8160040154341015610262576040517f08c379a0000000000000000000000000000000000000000000000000000000008152600401610259906110c0565b60405180910390fd5b806001015434116102a8576040517f08c379a000000000000000000000000000000000000000000000000000000000815260040161029f9061112c565b60405180910390fd5b8060040160009054906101000a900460ff16156102fa576040517f08c379a00000000000000000000000000000000000000000000000000000000081526004016102f190611198565b60405180910390fd5b600073ffffffffffffffffffffffffffffffffffffffff168160020160009054906101000a900473ffffffffffffffffffffffffffffffffffffffff1673ffffffffffffffffffffffffffffffffffffffff16146103c2578060020160009054906101000a900473ffffffffffffffffffffffffffffffffffffffff1673ffffffffffffffffffffffffffffffffffffffff166108fc82600101549081150290604051600060405180830381858888f193505050501580156103c0573d6000803e3d6000fd5b505b348160010181905550338160020160006101000a81548173ffffffffffffffffffffffffffffffffffffffff021916908373ffffffffffffffffffffffffffffffffffffffff1602179055503373ffffffffffffffffffffffffffffffffffffffff1682600601547fb556ff269c1b6714f432c36431e2041d28436a73b6c3f19c021827bbdc6bfc293460405161045991906111b8565b60405180910390a3505050565b60006020528060005260406000206000915090508060000154908060010160009054906101000a900473ffffffffffffffffffffffffffffffffffffffff16908060020160009054906101000a900473ffffffffffffffffffffffffffffffffffffffff16908060030180546104db90611202565b80601f016020809104026020016040519081016040528092919081815260200182805461050790611202565b80156105545780601f1061052957610100808354040283529160200191610554565b820191906000526020600020905b81548152906001019060200180831161053757829003601f168201915b5050505050908060040154908060050160009054906101000a900460ff16908060060154905087565b60003385858542604051602001610598959493929190611320565b60405160208183030381529060405280519060200120905060006040518060e001604052808381526020013373ffffffffffffffffffffffffffffffffffffffff168152602001600073ffffffffffffffffffffffffffffffffffffffff16815260200187815260200186815260200185151581526020016000801b8152509050806000808481526020019081526020016000206000820151816000015560208201518160010160006101000a81548173ffffffffffffffffffffffffffffffffffffffff021916908373ffffffffffffffffffffffffffffffffffffffff16021790555060408201518160020160006101000a81548173ffffffffffffffffffffffffffffffffffffffff021916908373ffffffffffffffffffffffffffffffffffffffff16021790555060608201518160030190816106d99190611527565b506080820151816004015560a08201518160050160006101000a81548160ff02191690831515021790555060c082015181600601559050506000824260405160200161072692919061161a565b6040516020818303038152906040528051906020012090506000844261074c9190611675565b905060006040518060a0016040528084815260200160008152602001600073ffffffffffffffffffffffffffffffffffffffff1681526020018381526020016000151581525090508060016000858152602001908152602001600020600082015181600001556020820151816001015560408201518160020160006101000a81548173ffffffffffffffffffffffffffffffffffffffff021916908373ffffffffffffffffffffffffffffffffffffffff1602179055506060820151816003015560808201518160040160006101000a81548160ff021916908315150217905550905050826000808781526020019081526020016000206006018190555084837fa9b3621a7ff34fef963fdcfc4201cdab106bca0e8c897d6cdb4d8caa40af812b8460405161087b91906111b8565b60405180910390a3505050505050505050565b600080600083815260200190815260200160002090506000600160008360060154815260200190815260200160002090508160010160009054906101000a900473ffffffffffffffffffffffffffffffffffffffff1673ffffffffffffffffffffffffffffffffffffffff163373ffffffffffffffffffffffffffffffffffffffff1614610951576040517f08c379a00000000000000000000000000000000000000000000000000000000081526004016109489061171b565b60405180910390fd5b8060030154421015610998576040517f08c379a000000000000000000000000000000000000000000000000000000000815260040161098f90611787565b60405180910390fd5b8060040160009054906101000a900460ff16156109ea576040517f08c379a00000000000000000000000000000000000000000000000000000000081526004016109e190611198565b60405180910390fd5b8160010160009054906101000a900473ffffffffffffffffffffffffffffffffffffffff1673ffffffffffffffffffffffffffffffffffffffff166108fc82600101549081150290604051600060405180830381858888f19350505050158015610a58573d6000803e3d6000fd5b508060020160009054906101000a900473ffffffffffffffffffffffffffffffffffffffff168260020160006101000a81548173ffffffffffffffffffffffffffffffffffffffff021916908373ffffffffffffffffffffffffffffffffffffffff16021790555060018160040160006101000a81548160ff0219169083151502179055508060020160009054906101000a900473ffffffffffffffffffffffffffffffffffffffff1673ffffffffffffffffffffffffffffffffffffffff1681600001547fd5e3e604def17bd0c5b7b35a53a73dd0f20a6855f5672e207c4dade80e8b7b958360010154604051610b5091906111b8565b60405180910390a3505050565b6000604051905090565b600080fd5b600080fd5b6000819050919050565b610b8481610b71565b8114610b8f57600080fd5b50565b600081359050610ba181610b7b565b92915050565b600060208284031215610bbd57610bbc610b67565b5b6000610bcb84828501610b92565b91505092915050565b610bdd81610b71565b82525050565b6000819050919050565b610bf681610be3565b82525050565b600073ffffffffffffffffffffffffffffffffffffffff82169050919050565b6000610c2782610bfc565b9050919050565b610c3781610c1c565b82525050565b60008115159050919050565b610c5281610c3d565b82525050565b600060a082019050610c6d6000830188610bd4565b610c7a6020830187610bed565b610c876040830186610c2e565b610c946060830185610bed565b610ca16080830184610c49565b9695505050505050565b6000610cb682610bfc565b9050919050565b610cc681610cab565b82525050565b600081519050919050565b600082825260208201905092915050565b60005b83811015610d06578082015181840152602081019050610ceb565b60008484015250505050565b6000601f19601f8301169050919050565b6000610d2e82610ccc565b610d388185610cd7565b9350610d48818560208601610ce8565b610d5181610d12565b840191505092915050565b600060e082019050610d71600083018a610bd4565b610d7e6020830189610c2e565b610d8b6040830188610cbd565b8181036060830152610d9d8187610d23565b9050610dac6080830186610bed565b610db960a0830185610c49565b610dc660c0830184610bd4565b98975050505050505050565b600080fd5b600080fd5b7f4e487b7100000000000000000000000000000000000000000000000000000000600052604160045260246000fd5b610e1482610d12565b810181811067ffffffffffffffff82111715610e3357610e32610ddc565b5b80604052505050565b6000610e46610b5d565b9050610e528282610e0b565b919050565b600067ffffffffffffffff821115610e7257610e71610ddc565b5b610e7b82610d12565b9050602081019050919050565b82818337600083830152505050565b6000610eaa610ea584610e57565b610e3c565b905082815260208101848484011115610ec657610ec5610dd7565b5b610ed1848285610e88565b509392505050565b600082601f830112610eee57610eed610dd2565b5b8135610efe848260208601610e97565b91505092915050565b610f1081610be3565b8114610f1b57600080fd5b50565b600081359050610f2d81610f07565b92915050565b610f3c81610c3d565b8114610f4757600080fd5b50565b600081359050610f5981610f33565b92915050565b60008060008060808587031215610f7957610f78610b67565b5b600085013567ffffffffffffffff811115610f9757610f96610b6c565b5b610fa387828801610ed9565b9450506020610fb487828801610f1e565b9350506040610fc587828801610f4a565b9250506060610fd687828801610f1e565b91505092959194509250565b7f41756374696f6e2068617320656e646564000000000000000000000000000000600082015250565b6000611018601183610cd7565b915061102382610fe2565b602082019050919050565b600060208201905081810360008301526110478161100b565b9050919050565b7f4269642069732062656c6f772073656c6c6572277320696e697469616c20707260008201527f6963650000000000000000000000000000000000000000000000000000000000602082015250565b60006110aa602383610cd7565b91506110b58261104e565b604082019050919050565b600060208201905081810360008301526110d98161109d565b9050919050565b7f42696420697320746f6f206c6f77000000000000000000000000000000000000600082015250565b6000611116600e83610cd7565b9150611121826110e0565b602082019050919050565b6000602082019050818103600083015261114581611109565b9050919050565b7f41756374696f6e20616c72656164792066696e616c697a656400000000000000600082015250565b6000611182601983610cd7565b915061118d8261114c565b602082019050919050565b600060208201905081810360008301526111b181611175565b9050919050565b60006020820190506111cd6000830184610bed565b92915050565b7f4e487b7100000000000000000000000000000000000000000000000000000000600052602260045260246000fd5b6000600282049050600182168061121a57607f821691505b60208210810361122d5761122c6111d3565b5b50919050565b60008160601b9050919050565b600061124b82611233565b9050919050565b600061125d82611240565b9050919050565b61127561127082610cab565b611252565b82525050565b600081905092915050565b600061129182610ccc565b61129b818561127b565b93506112ab818560208601610ce8565b80840191505092915050565b6000819050919050565b6112d26112cd82610be3565b6112b7565b82525050565b60008160f81b9050919050565b60006112f0826112d8565b9050919050565b6000611302826112e5565b9050919050565b61131a61131582610c3d565b6112f7565b82525050565b600061132c8288611264565b60148201915061133c8287611286565b915061134882866112c1565b6020820191506113588285611309565b60018201915061136882846112c1565b6020820191508190509695505050505050565b60008190508160005260206000209050919050565b60006020601f8301049050919050565b600082821b905092915050565b6000600883026113dd7fffffffffffffffffffffffffffffffffffffffffffffffffffffffffffffffff826113a0565b6113e786836113a0565b95508019841693508086168417925050509392505050565b6000819050919050565b600061142461141f61141a84610be3565b6113ff565b610be3565b9050919050565b6000819050919050565b61143e83611409565b61145261144a8261142b565b8484546113ad565b825550505050565b600090565b61146761145a565b611472818484611435565b505050565b5b818110156114965761148b60008261145f565b600181019050611478565b5050565b601f8211156114db576114ac8161137b565b6114b584611390565b810160208510156114c4578190505b6114d86114d085611390565b830182611477565b50505b505050565b600082821c905092915050565b60006114fe600019846008026114e0565b1980831691505092915050565b600061151783836114ed565b9150826002028217905092915050565b61153082610ccc565b67ffffffffffffffff81111561154957611548610ddc565b5b6115538254611202565b61155e82828561149a565b600060209050601f831160018114611591576000841561157f578287015190505b611589858261150b565b8655506115f1565b601f19841661159f8661137b565b60005b828110156115c7578489015182556001820191506020850194506020810190506115a2565b868310156115e457848901516115e0601f8916826114ed565b8355505b6001600288020188555050505b505050505050565b6000819050919050565b61161461160f82610b71565b6115f9565b82525050565b60006116268285611603565b60208201915061163682846112c1565b6020820191508190509392505050565b7f4e487b7100000000000000000000000000000000000000000000000000000000600052601160045260246000fd5b600061168082610be3565b915061168b83610be3565b92508282019050808211156116a3576116a2611646565b5b92915050565b7f4f6e6c79207468652073656c6c65722063616e2066696e616c697a652074686560008201527f2061756374696f6e000000000000000000000000000000000000000000000000602082015250565b6000611705602883610cd7565b9150611710826116a9565b604082019050919050565b60006020820190508181036000830152611734816116f8565b9050919050565b7f41756374696f6e20686173206e6f7420656e6465642079657400000000000000600082015250565b6000611771601983610cd7565b915061177c8261173b565b602082019050919050565b600060208201905081810360008301526117a081611764565b905091905056fea264697066735822122062cf5bb6e81482ad38ba56f837a2b699db150e13cb88287c03a641ea302b942264736f6c63430008110033",
  "immutableReferences": {},
  "source": "// SPDX-License-Identifier: MIT\npragma solidity ^0.8.16;\n\ncontract EnergyBazar {\n  \n  // Struct for offered article with relevant parameters\n  struct EnergyArticle {\n    bytes32 articleId;\n    address payable seller;\n    address buyer;\n    string name;\n    uint256 price;\n    bool renewable;\n    bytes32 auctionId;\n  }\n\n  // Struct to represent an auction\n  struct Auction {\n    bytes32 auctionId;\n    uint256 highestBid;\n    address payable highestBidder; // Change the type to 'address payable'\n    uint256 endTime;\n    bool finalized;\n  }\n\n\n  // Linking unique article IDs to corresponding EnergyArticle struct\n  mapping(bytes32 => EnergyArticle) public articles;\n\n  // Linking unique auction IDs to corresponding Auction struct\n  mapping(bytes32 => Auction) public auctions;\n\n  // Events\n  event AuctionCreated(bytes32 indexed _auctionId, bytes32 indexed _articleId, uint256 _endTime);\n  event NewBid(bytes32 indexed _auctionId, address indexed _bidder, uint256 _value);\n  event AuctionFinalized(bytes32 indexed _auctionId, address indexed _winner, uint256 _value);\n\n  // Sell an article and create an auction\n  function sellPower(string memory _name, uint256 _price, bool _renewable, uint256 _auctionDuration) public {\n    bytes32 articleId = keccak256(abi.encodePacked(msg.sender, _name, _price, _renewable, block.timestamp));\n    \n    EnergyArticle memory article = EnergyArticle({\n      articleId: articleId,\n      seller: payable(msg.sender),\n      buyer: address(0),\n      name: _name,\n      price: _price,\n      renewable: _renewable,\n      auctionId: bytes32(0)\n    });\n\n    articles[articleId] = article;\n\n    // Create an auction for the energy article\n    bytes32 auctionId = keccak256(abi.encodePacked(articleId, block.timestamp));\n    uint256 endTime = block.timestamp + _auctionDuration;\n\n    Auction memory auction = Auction({\n      auctionId: auctionId,\n      highestBid: 0,\n      highestBidder: payable(address(0)),\n      endTime: endTime,\n      finalized: false\n    });\n\n    auctions[auctionId] = auction;\n    articles[articleId].auctionId = auctionId;\n    emit AuctionCreated(auctionId, articleId, endTime);\n  }\n\n  // Place a bid on an auction\n  function placeBid(bytes32 _articleId) public payable {\n    EnergyArticle storage article = articles[_articleId];\n    Auction storage auction = auctions[article.auctionId];\n\n    require(block.timestamp < auction.endTime, \"Auction has ended\");\n    require(msg.value >= article.price, \"Bid is below seller's initial price\");\n    require(msg.value > auction.highestBid, \"Bid is too low\");\n    require(!auction.finalized, \"Auction already finalized\");\n\n    if (auction.highestBidder != address(0)) {\n      // Refund previous highest bidder\n      auction.highestBidder.transfer(auction.highestBid);\n    }\n\n    auction.highestBid = msg.value;\n    auction.highestBidder = payable(msg.sender);\n    emit NewBid(article.auctionId, msg.sender, msg.value);\n  }\n\n  // Finalize the auction\n  function finalizeAuction(bytes32 _articleId) public {\n    EnergyArticle storage article = articles[_articleId];\n    Auction storage auction = auctions[article.auctionId];\n\n    require(msg.sender == article.seller, \"Only the seller can finalize the auction\");\n    require(block.timestamp >= auction.endTime, \"Auction has not ended yet\");\n    require(!auction.finalized, \"Auction already finalized\");\n\n    article.seller.transfer(auction.highestBid);\n    article.buyer = auction.highestBidder;\n    auction.finalized = true;\n\n    emit AuctionFinalized(auction.auctionId, auction.highestBidder, auction.highestBid);\n  }\n}\n",
  "sourcePath": "/home/jakob/FH/Semester6/Bacc-Arbeit/EnergyBazar/EnergyBazar/contracts/EnergyBazar.sol",
  "compiler": {
    "name": "solc",
    "version": "0.8.17+commit.8df45f5f.Emscripten.clang"
  },
  "schemaVersion": "3.4.10",
  "updatedAt": "2023-05-06T07:03:40.303Z",
  "networkType": "ethereum",
  "devdoc": {
    "kind": "dev",
    "methods": {},
    "version": 1
  },
  "userdoc": {
    "kind": "user",
    "methods": {},
    "version": 1
  }
}