{
  "contractName": "EnergyBazar",
  "abi": [
    {
      "inputs": [
        {
          "internalType": "string",
          "name": "_name",
          "type": "string"
        },
        {
          "internalType": "uint256",
          "name": "_price",
          "type": "uint256"
        },
        {
          "internalType": "bool",
          "name": "_renewable",
          "type": "bool"
        }
      ],
      "name": "sellPower",
      "outputs": [],
      "stateMutability": "nonpayable",
      "type": "function"
    },
    {
      "inputs": [],
      "name": "getArticle",
      "outputs": [
        {
          "internalType": "address",
          "name": "_seller",
          "type": "address"
        },
        {
          "internalType": "string",
          "name": "_name",
          "type": "string"
        },
        {
          "internalType": "uint256",
          "name": "_price",
          "type": "uint256"
        },
        {
          "internalType": "bool",
          "name": "_renewable",
          "type": "bool"
        }
      ],
      "stateMutability": "view",
      "type": "function",
      "constant": true
    }
  ],
  "bytecode": "0x608060405234801561001057600080fd5b5061083a806100206000396000f3fe608060405234801561001057600080fd5b50600436106100365760003560e01c8063a38c20ef1461003b578063c37218a614610057575b600080fd5b6100556004803603810190610050919061038d565b610078565b005b61005f6100ee565b60405161006f94939291906104da565b60405180910390f35b336000806101000a81548173ffffffffffffffffffffffffffffffffffffffff021916908373ffffffffffffffffffffffffffffffffffffffff16021790555082600190816100c79190610732565b508160028190555080600360006101000a81548160ff021916908315150217905550505050565b6000606060008060008054906101000a900473ffffffffffffffffffffffffffffffffffffffff166001600254600360009054906101000a900460ff1682805461013790610555565b80601f016020809104026020016040519081016040528092919081815260200182805461016390610555565b80156101b05780601f10610185576101008083540402835291602001916101b0565b820191906000526020600020905b81548152906001019060200180831161019357829003601f168201915b50505050509250935093509350935090919293565b6000604051905090565b600080fd5b600080fd5b600080fd5b600080fd5b6000601f19601f8301169050919050565b7f4e487b7100000000000000000000000000000000000000000000000000000000600052604160045260246000fd5b61022c826101e3565b810181811067ffffffffffffffff8211171561024b5761024a6101f4565b5b80604052505050565b600061025e6101c5565b905061026a8282610223565b919050565b600067ffffffffffffffff82111561028a576102896101f4565b5b610293826101e3565b9050602081019050919050565b82818337600083830152505050565b60006102c26102bd8461026f565b610254565b9050828152602081018484840111156102de576102dd6101de565b5b6102e98482856102a0565b509392505050565b600082601f830112610306576103056101d9565b5b81356103168482602086016102af565b91505092915050565b6000819050919050565b6103328161031f565b811461033d57600080fd5b50565b60008135905061034f81610329565b92915050565b60008115159050919050565b61036a81610355565b811461037557600080fd5b50565b60008135905061038781610361565b92915050565b6000806000606084860312156103a6576103a56101cf565b5b600084013567ffffffffffffffff8111156103c4576103c36101d4565b5b6103d0868287016102f1565b93505060206103e186828701610340565b92505060406103f286828701610378565b9150509250925092565b600073ffffffffffffffffffffffffffffffffffffffff82169050919050565b6000610427826103fc565b9050919050565b6104378161041c565b82525050565b600081519050919050565b600082825260208201905092915050565b60005b8381101561047757808201518184015260208101905061045c565b60008484015250505050565b600061048e8261043d565b6104988185610448565b93506104a8818560208601610459565b6104b1816101e3565b840191505092915050565b6104c58161031f565b82525050565b6104d481610355565b82525050565b60006080820190506104ef600083018761042e565b81810360208301526105018186610483565b905061051060408301856104bc565b61051d60608301846104cb565b95945050505050565b7f4e487b7100000000000000000000000000000000000000000000000000000000600052602260045260246000fd5b6000600282049050600182168061056d57607f821691505b6020821081036105805761057f610526565b5b50919050565b60008190508160005260206000209050919050565b60006020601f8301049050919050565b600082821b905092915050565b6000600883026105e87fffffffffffffffffffffffffffffffffffffffffffffffffffffffffffffffff826105ab565b6105f286836105ab565b95508019841693508086168417925050509392505050565b6000819050919050565b600061062f61062a6106258461031f565b61060a565b61031f565b9050919050565b6000819050919050565b61064983610614565b61065d61065582610636565b8484546105b8565b825550505050565b600090565b610672610665565b61067d818484610640565b505050565b5b818110156106a15761069660008261066a565b600181019050610683565b5050565b601f8211156106e6576106b781610586565b6106c08461059b565b810160208510156106cf578190505b6106e36106db8561059b565b830182610682565b50505b505050565b600082821c905092915050565b6000610709600019846008026106eb565b1980831691505092915050565b600061072283836106f8565b9150826002028217905092915050565b61073b8261043d565b67ffffffffffffffff811115610754576107536101f4565b5b61075e8254610555565b6107698282856106a5565b600060209050601f83116001811461079c576000841561078a578287015190505b6107948582610716565b8655506107fc565b601f1984166107aa86610586565b60005b828110156107d2578489015182556001820191506020850194506020810190506107ad565b868310156107ef57848901516107eb601f8916826106f8565b8355505b6001600288020188555050505b50505050505056fea264697066735822122060b35c7ab070ca624b82db355b3b23870bdf30f6b4035e8acfa3b19a031153cc64736f6c63430008110033",
  "immutableReferences": {},
  "source": "// SPDX-License-Identifier: MIT\npragma solidity ^0.8.16;\n\ncontract EnergyBazar {\n  address seller;\n  string name;\n  uint256 price;\n\n  struct source{\n    bool solar;\n    bool wind;\n    bool hydro;\n    bool fossil;\n    bool other;\n  }\n\n  bool renewable;\n\n  function sellPower(string memory _name, uint256 _price, bool _renewable) public{\n    seller = msg.sender;\n    name = _name;\n    price = _price;\n    renewable = _renewable;\n  }\n\n  function getArticle() public view returns(\n    address _seller,\n    string memory _name,\n    uint256 _price,\n    bool _renewable\n  ){\n    return (seller, name, price, renewable);\n  }\n}\n",
  "sourcePath": "/home/jakob/FH/Semester6/Bacc-Arbeit/EnergyBazar/EnergyBazar/contracts/EnergyBazar.sol",
  "compiler": {
    "name": "solc",
    "version": "0.8.17+commit.8df45f5f.Emscripten.clang"
  },
  "schemaVersion": "3.4.10",
  "updatedAt": "2023-03-18T19:34:43.340Z",
  "networkType": "ethereum",
  "devdoc": {
    "kind": "dev",
    "methods": {},
    "version": 1
  },
  "userdoc": {
    "kind": "user",
    "methods": {},
    "version": 1
  }
}