{
  "contractName": "EnergyBazar",
  "abi": [
    {
      "anonymous": false,
      "inputs": [
        {
          "indexed": true,
          "internalType": "address",
          "name": "_seller",
          "type": "address"
        },
        {
          "indexed": false,
          "internalType": "string",
          "name": "_name",
          "type": "string"
        },
        {
          "indexed": false,
          "internalType": "uint256",
          "name": "_price",
          "type": "uint256"
        },
        {
          "indexed": false,
          "internalType": "bool",
          "name": "_renewable",
          "type": "bool"
        }
      ],
      "name": "ArticleToSell",
      "type": "event"
    },
    {
      "inputs": [
        {
          "internalType": "string",
          "name": "_name",
          "type": "string"
        },
        {
          "internalType": "uint256",
          "name": "_price",
          "type": "uint256"
        },
        {
          "internalType": "bool",
          "name": "_renewable",
          "type": "bool"
        }
      ],
      "name": "sellPower",
      "outputs": [],
      "stateMutability": "nonpayable",
      "type": "function"
    },
    {
      "inputs": [],
      "name": "getArticle",
      "outputs": [
        {
          "internalType": "address",
          "name": "_seller",
          "type": "address"
        },
        {
          "internalType": "string",
          "name": "_name",
          "type": "string"
        },
        {
          "internalType": "uint256",
          "name": "_price",
          "type": "uint256"
        },
        {
          "internalType": "bool",
          "name": "_renewable",
          "type": "bool"
        }
      ],
      "stateMutability": "view",
      "type": "function",
      "constant": true
    }
  ],
  "bytecode": "0x608060405234801561001057600080fd5b50610980806100206000396000f3fe608060405234801561001057600080fd5b50600436106100365760003560e01c8063a38c20ef1461003b578063c37218a614610057575b600080fd5b61005560048036038101906100509190610411565b610078565b005b61005f610172565b60405161006f949392919061055e565b60405180910390f35b336000806101000a81548173ffffffffffffffffffffffffffffffffffffffff021916908373ffffffffffffffffffffffffffffffffffffffff16021790555082600190816100c791906107b6565b508160028190555080600360006101000a81548160ff02191690831515021790555060008054906101000a900473ffffffffffffffffffffffffffffffffffffffff1673ffffffffffffffffffffffffffffffffffffffff167f0576e5ce964457f9c42a760e534e32c908e945979b00aa2eaa2ca0e4e0fa234a6001600254600360009054906101000a900460ff166040516101659392919061090c565b60405180910390a2505050565b6000606060008060008054906101000a900473ffffffffffffffffffffffffffffffffffffffff166001600254600360009054906101000a900460ff168280546101bb906105d9565b80601f01602080910402602001604051908101604052809291908181526020018280546101e7906105d9565b80156102345780601f1061020957610100808354040283529160200191610234565b820191906000526020600020905b81548152906001019060200180831161021757829003601f168201915b50505050509250935093509350935090919293565b6000604051905090565b600080fd5b600080fd5b600080fd5b600080fd5b6000601f19601f8301169050919050565b7f4e487b7100000000000000000000000000000000000000000000000000000000600052604160045260246000fd5b6102b082610267565b810181811067ffffffffffffffff821117156102cf576102ce610278565b5b80604052505050565b60006102e2610249565b90506102ee82826102a7565b919050565b600067ffffffffffffffff82111561030e5761030d610278565b5b61031782610267565b9050602081019050919050565b82818337600083830152505050565b6000610346610341846102f3565b6102d8565b90508281526020810184848401111561036257610361610262565b5b61036d848285610324565b509392505050565b600082601f83011261038a5761038961025d565b5b813561039a848260208601610333565b91505092915050565b6000819050919050565b6103b6816103a3565b81146103c157600080fd5b50565b6000813590506103d3816103ad565b92915050565b60008115159050919050565b6103ee816103d9565b81146103f957600080fd5b50565b60008135905061040b816103e5565b92915050565b60008060006060848603121561042a57610429610253565b5b600084013567ffffffffffffffff81111561044857610447610258565b5b61045486828701610375565b9350506020610465868287016103c4565b9250506040610476868287016103fc565b9150509250925092565b600073ffffffffffffffffffffffffffffffffffffffff82169050919050565b60006104ab82610480565b9050919050565b6104bb816104a0565b82525050565b600081519050919050565b600082825260208201905092915050565b60005b838110156104fb5780820151818401526020810190506104e0565b60008484015250505050565b6000610512826104c1565b61051c81856104cc565b935061052c8185602086016104dd565b61053581610267565b840191505092915050565b610549816103a3565b82525050565b610558816103d9565b82525050565b600060808201905061057360008301876104b2565b81810360208301526105858186610507565b90506105946040830185610540565b6105a1606083018461054f565b95945050505050565b7f4e487b7100000000000000000000000000000000000000000000000000000000600052602260045260246000fd5b600060028204905060018216806105f157607f821691505b602082108103610604576106036105aa565b5b50919050565b60008190508160005260206000209050919050565b60006020601f8301049050919050565b600082821b905092915050565b60006008830261066c7fffffffffffffffffffffffffffffffffffffffffffffffffffffffffffffffff8261062f565b610676868361062f565b95508019841693508086168417925050509392505050565b6000819050919050565b60006106b36106ae6106a9846103a3565b61068e565b6103a3565b9050919050565b6000819050919050565b6106cd83610698565b6106e16106d9826106ba565b84845461063c565b825550505050565b600090565b6106f66106e9565b6107018184846106c4565b505050565b5b818110156107255761071a6000826106ee565b600181019050610707565b5050565b601f82111561076a5761073b8161060a565b6107448461061f565b81016020851015610753578190505b61076761075f8561061f565b830182610706565b50505b505050565b600082821c905092915050565b600061078d6000198460080261076f565b1980831691505092915050565b60006107a6838361077c565b9150826002028217905092915050565b6107bf826104c1565b67ffffffffffffffff8111156107d8576107d7610278565b5b6107e282546105d9565b6107ed828285610729565b600060209050601f831160018114610820576000841561080e578287015190505b610818858261079a565b865550610880565b601f19841661082e8661060a565b60005b8281101561085657848901518255600182019150602085019450602081019050610831565b86831015610873578489015161086f601f89168261077c565b8355505b6001600288020188555050505b505050505050565b60008154610895816105d9565b61089f81866104cc565b945060018216600081146108ba57600181146108d057610903565b60ff198316865281151560200286019350610903565b6108d98561060a565b60005b838110156108fb578154818901526001820191506020810190506108dc565b808801955050505b50505092915050565b600060608201905081810360008301526109268186610888565b90506109356020830185610540565b610942604083018461054f565b94935050505056fea2646970667358221220723d680a7352108a45d1ff0ec5ab66700fe2df9ea23627911cc406a47f4fc43164736f6c63430008110033",
  "immutableReferences": {},
  "source": "// SPDX-License-Identifier: MIT\npragma solidity ^0.8.16;\n\ncontract EnergyBazar {\n  address seller;\n  string name;\n  uint256 price;\n\n  struct source{\n    bool solar;\n    bool wind;\n    bool hydro;\n    bool fossil;\n    bool other;\n  }\n\n  bool renewable;\n\n  //Event\n  event ArticleToSell(address indexed _seller, string _name, uint256 _price, bool _renewable);\n\n  //Sell an article\n  function sellPower(string memory _name, uint256 _price, bool _renewable) public{\n    seller = msg.sender;\n    name = _name;\n    price = _price;\n    renewable = _renewable;\n\n    emit ArticleToSell(seller, name, price, renewable);\n  }\n\n  //Return article for sale\n  function getArticle() public view returns(\n    address _seller,\n    string memory _name,\n    uint256 _price,\n    bool _renewable\n  ){\n    return (seller, name, price, renewable);\n  }\n}\n",
  "sourcePath": "/home/jakob/FH/Semester6/Bacc-Arbeit/EnergyBazar/EnergyBazar/contracts/EnergyBazar.sol",
  "compiler": {
    "name": "solc",
    "version": "0.8.17+commit.8df45f5f.Emscripten.clang"
  },
  "schemaVersion": "3.4.10",
  "updatedAt": "2023-03-19T15:19:40.166Z",
  "networkType": "ethereum",
  "devdoc": {
    "kind": "dev",
    "methods": {},
    "version": 1
  },
  "userdoc": {
    "kind": "user",
    "methods": {},
    "version": 1
  }
}