{
  "contractName": "EnergyBazar",
  "abi": [
    {
      "anonymous": false,
      "inputs": [
        {
          "indexed": true,
          "internalType": "address",
          "name": "_seller",
          "type": "address"
        },
        {
          "indexed": true,
          "internalType": "address",
          "name": "_buyer",
          "type": "address"
        },
        {
          "indexed": false,
          "internalType": "string",
          "name": "_name",
          "type": "string"
        },
        {
          "indexed": false,
          "internalType": "uint256",
          "name": "_price",
          "type": "uint256"
        },
        {
          "components": [
            {
              "internalType": "bool",
              "name": "solar",
              "type": "bool"
            },
            {
              "internalType": "bool",
              "name": "wind",
              "type": "bool"
            },
            {
              "internalType": "bool",
              "name": "hydro",
              "type": "bool"
            },
            {
              "internalType": "bool",
              "name": "fossil",
              "type": "bool"
            },
            {
              "internalType": "bool",
              "name": "other",
              "type": "bool"
            }
          ],
          "indexed": false,
          "internalType": "struct EnergyBazar.source",
          "name": "_energySource",
          "type": "tuple"
        }
      ],
      "name": "ArticleSold",
      "type": "event"
    },
    {
      "anonymous": false,
      "inputs": [
        {
          "indexed": true,
          "internalType": "address",
          "name": "_seller",
          "type": "address"
        },
        {
          "indexed": false,
          "internalType": "string",
          "name": "_name",
          "type": "string"
        },
        {
          "indexed": false,
          "internalType": "uint256",
          "name": "_price",
          "type": "uint256"
        },
        {
          "components": [
            {
              "internalType": "bool",
              "name": "solar",
              "type": "bool"
            },
            {
              "internalType": "bool",
              "name": "wind",
              "type": "bool"
            },
            {
              "internalType": "bool",
              "name": "hydro",
              "type": "bool"
            },
            {
              "internalType": "bool",
              "name": "fossil",
              "type": "bool"
            },
            {
              "internalType": "bool",
              "name": "other",
              "type": "bool"
            }
          ],
          "indexed": false,
          "internalType": "struct EnergyBazar.source",
          "name": "_energySource",
          "type": "tuple"
        }
      ],
      "name": "ArticleToSell",
      "type": "event"
    },
    {
      "inputs": [
        {
          "internalType": "string",
          "name": "_name",
          "type": "string"
        },
        {
          "internalType": "uint256",
          "name": "_price",
          "type": "uint256"
        },
        {
          "internalType": "bool",
          "name": "_solar",
          "type": "bool"
        },
        {
          "internalType": "bool",
          "name": "_wind",
          "type": "bool"
        },
        {
          "internalType": "bool",
          "name": "_hydro",
          "type": "bool"
        },
        {
          "internalType": "bool",
          "name": "_fossil",
          "type": "bool"
        },
        {
          "internalType": "bool",
          "name": "_other",
          "type": "bool"
        }
      ],
      "name": "sellPower",
      "outputs": [],
      "stateMutability": "nonpayable",
      "type": "function"
    },
    {
      "inputs": [],
      "name": "getArticle",
      "outputs": [
        {
          "internalType": "address",
          "name": "_seller",
          "type": "address"
        },
        {
          "internalType": "address",
          "name": "_buyer",
          "type": "address"
        },
        {
          "internalType": "string",
          "name": "_name",
          "type": "string"
        },
        {
          "internalType": "uint256",
          "name": "_price",
          "type": "uint256"
        },
        {
          "components": [
            {
              "internalType": "bool",
              "name": "solar",
              "type": "bool"
            },
            {
              "internalType": "bool",
              "name": "wind",
              "type": "bool"
            },
            {
              "internalType": "bool",
              "name": "hydro",
              "type": "bool"
            },
            {
              "internalType": "bool",
              "name": "fossil",
              "type": "bool"
            },
            {
              "internalType": "bool",
              "name": "other",
              "type": "bool"
            }
          ],
          "internalType": "struct EnergyBazar.source",
          "name": "_energySource",
          "type": "tuple"
        }
      ],
      "stateMutability": "view",
      "type": "function",
      "constant": true
    },
    {
      "inputs": [],
      "name": "buyPower",
      "outputs": [],
      "stateMutability": "payable",
      "type": "function",
      "payable": true
    }
  ],
  "bytecode": "0x608060405234801561001057600080fd5b50611251806100206000396000f3fe6080604052600436106100345760003560e01c806370a19a6a14610039578063b1773c4114610062578063c37218a61461006c575b600080fd5b34801561004557600080fd5b50610060600480360381019061005b9190610917565b61009b565b005b61006a610247565b005b34801561007857600080fd5b5061008161058a565b604051610092959493929190610b1b565b60405180910390f35b336000806101000a81548173ffffffffffffffffffffffffffffffffffffffff021916908373ffffffffffffffffffffffffffffffffffffffff16021790555086600290816100ea9190610d82565b50856003819055506040518060a001604052808615158152602001851515815260200184151581526020018315158152602001821515815250600460008201518160000160006101000a81548160ff02191690831515021790555060208201518160000160016101000a81548160ff02191690831515021790555060408201518160000160026101000a81548160ff02191690831515021790555060608201518160000160036101000a81548160ff02191690831515021790555060808201518160000160046101000a81548160ff02191690831515021790555090505060008054906101000a900473ffffffffffffffffffffffffffffffffffffffff1673ffffffffffffffffffffffffffffffffffffffff167fe8767c676a1d85f9cd75868e47e5e3a4df0145d5dcb9db1ab35897fe15c3658d600260035460046040516102369392919061102d565b60405180910390a250505050505050565b600073ffffffffffffffffffffffffffffffffffffffff1660008054906101000a900473ffffffffffffffffffffffffffffffffffffffff1673ffffffffffffffffffffffffffffffffffffffff16036102d6576040517f08c379a00000000000000000000000000000000000000000000000000000000081526004016102cd906110b7565b60405180910390fd5b600073ffffffffffffffffffffffffffffffffffffffff16600160009054906101000a900473ffffffffffffffffffffffffffffffffffffffff1673ffffffffffffffffffffffffffffffffffffffff1614610367576040517f08c379a000000000000000000000000000000000000000000000000000000000815260040161035e90611123565b60405180910390fd5b60035434146103ab576040517f08c379a00000000000000000000000000000000000000000000000000000000081526004016103a29061118f565b60405180910390fd5b600460000160009054906101000a900460ff16806103d85750600460000160019054906101000a900460ff165b806103f25750600460000160029054906101000a900460ff165b610431576040517f08c379a0000000000000000000000000000000000000000000000000000000008152600401610428906111fb565b60405180910390fd5b33600160006101000a81548173ffffffffffffffffffffffffffffffffffffffff021916908373ffffffffffffffffffffffffffffffffffffffff16021790555060008054906101000a900473ffffffffffffffffffffffffffffffffffffffff1673ffffffffffffffffffffffffffffffffffffffff166108fc349081150290604051600060405180830381858888f193505050501580156104d8573d6000803e3d6000fd5b50600160009054906101000a900473ffffffffffffffffffffffffffffffffffffffff1673ffffffffffffffffffffffffffffffffffffffff1660008054906101000a900473ffffffffffffffffffffffffffffffffffffffff1673ffffffffffffffffffffffffffffffffffffffff167f6e56ddb8c5721100ce30dc5be6ba05a8fb52b89588e0cf0dbf064a7d7416857c600260035460046040516105809392919061102d565b60405180910390a3565b60008060606000610599610716565b60008054906101000a900473ffffffffffffffffffffffffffffffffffffffff16600160009054906101000a900473ffffffffffffffffffffffffffffffffffffffff16600260035460048280546105f090610ba5565b80601f016020809104026020016040519081016040528092919081815260200182805461061c90610ba5565b80156106695780601f1061063e57610100808354040283529160200191610669565b820191906000526020600020905b81548152906001019060200180831161064c57829003601f168201915b50505050509250806040518060a00160405290816000820160009054906101000a900460ff161515151581526020016000820160019054906101000a900460ff161515151581526020016000820160029054906101000a900460ff161515151581526020016000820160039054906101000a900460ff161515151581526020016000820160049054906101000a900460ff1615151515815250509050945094509450945094509091929394565b6040518060a001604052806000151581526020016000151581526020016000151581526020016000151581526020016000151581525090565b6000604051905090565b600080fd5b600080fd5b600080fd5b600080fd5b6000601f19601f8301169050919050565b7f4e487b7100000000000000000000000000000000000000000000000000000000600052604160045260246000fd5b6107b68261076d565b810181811067ffffffffffffffff821117156107d5576107d461077e565b5b80604052505050565b60006107e861074f565b90506107f482826107ad565b919050565b600067ffffffffffffffff8211156108145761081361077e565b5b61081d8261076d565b9050602081019050919050565b82818337600083830152505050565b600061084c610847846107f9565b6107de565b90508281526020810184848401111561086857610867610768565b5b61087384828561082a565b509392505050565b600082601f8301126108905761088f610763565b5b81356108a0848260208601610839565b91505092915050565b6000819050919050565b6108bc816108a9565b81146108c757600080fd5b50565b6000813590506108d9816108b3565b92915050565b60008115159050919050565b6108f4816108df565b81146108ff57600080fd5b50565b600081359050610911816108eb565b92915050565b600080600080600080600060e0888a03121561093657610935610759565b5b600088013567ffffffffffffffff8111156109545761095361075e565b5b6109608a828b0161087b565b97505060206109718a828b016108ca565b96505060406109828a828b01610902565b95505060606109938a828b01610902565b94505060806109a48a828b01610902565b93505060a06109b58a828b01610902565b92505060c06109c68a828b01610902565b91505092959891949750929550565b600073ffffffffffffffffffffffffffffffffffffffff82169050919050565b6000610a00826109d5565b9050919050565b610a10816109f5565b82525050565b600081519050919050565b600082825260208201905092915050565b60005b83811015610a50578082015181840152602081019050610a35565b60008484015250505050565b6000610a6782610a16565b610a718185610a21565b9350610a81818560208601610a32565b610a8a8161076d565b840191505092915050565b610a9e816108a9565b82525050565b610aad816108df565b82525050565b60a082016000820151610ac96000850182610aa4565b506020820151610adc6020850182610aa4565b506040820151610aef6040850182610aa4565b506060820151610b026060850182610aa4565b506080820151610b156080850182610aa4565b50505050565b600061012082019050610b316000830188610a07565b610b3e6020830187610a07565b8181036040830152610b508186610a5c565b9050610b5f6060830185610a95565b610b6c6080830184610ab3565b9695505050505050565b7f4e487b7100000000000000000000000000000000000000000000000000000000600052602260045260246000fd5b60006002820490506001821680610bbd57607f821691505b602082108103610bd057610bcf610b76565b5b50919050565b60008190508160005260206000209050919050565b60006020601f8301049050919050565b600082821b905092915050565b600060088302610c387fffffffffffffffffffffffffffffffffffffffffffffffffffffffffffffffff82610bfb565b610c428683610bfb565b95508019841693508086168417925050509392505050565b6000819050919050565b6000610c7f610c7a610c75846108a9565b610c5a565b6108a9565b9050919050565b6000819050919050565b610c9983610c64565b610cad610ca582610c86565b848454610c08565b825550505050565b600090565b610cc2610cb5565b610ccd818484610c90565b505050565b5b81811015610cf157610ce6600082610cba565b600181019050610cd3565b5050565b601f821115610d3657610d0781610bd6565b610d1084610beb565b81016020851015610d1f578190505b610d33610d2b85610beb565b830182610cd2565b50505b505050565b600082821c905092915050565b6000610d5960001984600802610d3b565b1980831691505092915050565b6000610d728383610d48565b9150826002028217905092915050565b610d8b82610a16565b67ffffffffffffffff811115610da457610da361077e565b5b610dae8254610ba5565b610db9828285610cf5565b600060209050601f831160018114610dec5760008415610dda578287015190505b610de48582610d66565b865550610e4c565b601f198416610dfa86610bd6565b60005b82811015610e2257848901518255600182019150602085019450602081019050610dfd565b86831015610e3f5784890151610e3b601f891682610d48565b8355505b6001600288020188555050505b505050505050565b60008154610e6181610ba5565b610e6b8186610a21565b94506001821660008114610e865760018114610e9c57610ecf565b60ff198316865281151560200286019350610ecf565b610ea585610bd6565b60005b83811015610ec757815481890152600182019150602081019050610ea8565b808801955050505b50505092915050565b60008160001c9050919050565b600060ff82169050919050565b6000610f05610f0083610ed8565b610ee5565b9050919050565b60008160081c9050919050565b6000610f2c610f2783610f0c565b610ee5565b9050919050565b60008160101c9050919050565b6000610f53610f4e83610f33565b610ee5565b9050919050565b60008160181c9050919050565b6000610f7a610f7583610f5a565b610ee5565b9050919050565b60008160201c9050919050565b6000610fa1610f9c83610f81565b610ee5565b9050919050565b60a082016000808301549050610fbd81610ef2565b610fca6000860182610aa4565b50610fd481610f19565b610fe16020860182610aa4565b50610feb81610f40565b610ff86040860182610aa4565b5061100281610f67565b61100f6060860182610aa4565b5061101981610f8e565b6110266080860182610aa4565b5050505050565b600060e08201905081810360008301526110478186610e54565b90506110566020830185610a95565b6110636040830184610fa8565b949350505050565b7f41727469636c65206e6f7420617661696c61626c650000000000000000000000600082015250565b60006110a1601583610a21565b91506110ac8261106b565b602082019050919050565b600060208201905081810360008301526110d081611094565b9050919050565b7f41727469636c6520616c726561647920736f6c64000000000000000000000000600082015250565b600061110d601483610a21565b9150611118826110d7565b602082019050919050565b6000602082019050818103600083015261113c81611100565b9050919050565b7f57726f6e67207072696365000000000000000000000000000000000000000000600082015250565b6000611179600b83610a21565b915061118482611143565b602082019050919050565b600060208201905081810360008301526111a88161116c565b9050919050565b7f4e6f6e2d72656e657761626c6520656e6572677920736f757263652075736564600082015250565b60006111e5602083610a21565b91506111f0826111af565b602082019050919050565b60006020820190508181036000830152611214816111d8565b905091905056fea2646970667358221220fb950a7e1bfe09fc72d240687fad9b89feddfde3eb4ff890d8b5140d6facd36164736f6c63430008110033",
  "immutableReferences": {},
  "source": "// SPDX-License-Identifier: MIT\npragma solidity ^0.8.16;\n\ncontract EnergyBazar {\n  address payable seller;\n  address buyer;\n  string name;\n  uint256 price;\n\n  struct source{\n    bool solar;\n    bool wind;\n    bool hydro;\n    bool fossil;\n    bool other;\n  }\n\n  source energySource;\n\n  //Events\n  event ArticleToSell(address indexed _seller, string _name, uint256 _price, source _energySource);\n  event ArticleSold(address indexed _seller, address indexed _buyer, string _name, uint256 _price, source _energySource);\n\n\n  //Sell an article\n  function sellPower(string memory _name, uint256 _price, bool _solar, bool _wind, bool _hydro, bool _fossil, bool _other) public{\n    seller = payable(msg.sender); \n    name = _name;\n    price = _price;\n\n    energySource = source({\n        solar: _solar,\n        wind: _wind,\n        hydro: _hydro,\n        fossil: _fossil,\n        other: _other\n    });\n\n    emit ArticleToSell(seller, name, price, energySource);\n  }\n\n  //Return article for sale\n  function getArticle() public view returns(\n    address _seller,\n    address _buyer,\n    string memory _name,\n    uint256 _price,\n    source memory _energySource\n  ){\n    return (seller, buyer, name, price, energySource);\n  }\n\n  //Buy an article\n    function buyPower() public payable {\n      //is article for sale?\n      require(seller != address(0), \"Article not available\");\n      \n      //is article sold yet?\n      require(buyer == address(0), \"Article already sold\");\n\n      //is price correct?\n      require(msg.value == price, \"Wrong price\");\n\n      //Check if renewable energy is used\n      require(energySource.solar || energySource.wind || energySource.hydro, \"Non-renewable energy source used\");\n\n      //Sender is recorded as Buyer\n      buyer = msg.sender;\n\n      // Transfer the value of the transaction to the seller's address\n      seller.transfer(msg.value);\n\n      //trigger event\n      emit ArticleSold(seller, buyer, name, price, energySource);\n  }\n}\n",
  "sourcePath": "/home/jakob/FH/Semester6/Bacc-Arbeit/EnergyBazar/EnergyBazar/contracts/EnergyBazar.sol",
  "compiler": {
    "name": "solc",
    "version": "0.8.17+commit.8df45f5f.Emscripten.clang"
  },
  "schemaVersion": "3.4.10",
  "updatedAt": "2023-03-19T16:50:25.575Z",
  "networkType": "ethereum",
  "devdoc": {
    "kind": "dev",
    "methods": {},
    "version": 1
  },
  "userdoc": {
    "kind": "user",
    "methods": {},
    "version": 1
  }
}